:020000040800F2
:10000000801C0020A1040008A5020008A702000827
:10001000AB020008AF020008B302000800000000B5
:10002000000000000000000000000000B70200080F
:10003000B902000800000000BB020008BD02000871
:10004000BB040008BB040008BB040008A34200086E
:10005000BB040008BB040008ED2B0008192C0008A5
:10006000BB040008BB040008BB040008BB04000874
:10007000BB040008BB040008BB040008BB04000864
:10008000BB040008BB040008BB040008BB04000854
:10009000BB040008BB040008BB040008BB04000844
:1000A000BB040008BB040008BB040008BB04000834
:1000B00047480008BB040008BB040008BB04000854
:1000C000BB040008BB040008BB040008BB04000814
:1000D000BB0400084D29000865290008BB0400087E
:1000E000BB040008BB040008BB04000800F002F8D1
:1000F00000F062F80AA090E8000C82448344AAF160
:100100000107DA4501D100F057F8AFF2090EBAE85D
:100110000F0013F0010F18BFFB1A43F0010318473B
:100120007C9200009C9200000A444FF0000C10F8F2
:10013000013B13F0070408BF10F8014B1D1108BF65
:1001400010F8015B641E05D010F8016B641E01F805
:10015000016BF9D113F0080F1EBF10F8014BAD1C55
:100160000C1B09D16D1E58BF01F801CBFAD505E073
:1001700014F8016B01F8016B6D1EF9D59142D6D3CD
:10018000704700000023002400250026103A28BFF5
:1001900078C1FBD8520728BF30C148BF0B607047F9
:1001A000642905F0F786732905F0E387002070477E
:1001B0001FB51FBD10B510BD05F0F6FF1146FFF7C6
:1001C000F7FF00F018F806F014F803B4FFF7F2FF99
:1001D00003BC02F011FB000010B5012000F0BFFECF
:1001E000082000F048FC2C4908700C2000F043FC6B
:1001F0002A49087010BD02F095FA4FF4A06000F093
:100200006FF903F097FE02F0B1FC04F07DFC08B931
:1002100004F067FC02F04EFD02F063FD04F0F0FF15
:100220004FF4E13002F0F7FA4FF4E13002F040FB16
:1002300003F0D7FF02F00DFC04F011FA40F21F1199
:1002400041F2873004F078FC02F041FE41F61F4194
:1002500040F2E73004F0CAFAFFF7BEFF03F0C6FA37
:1002600002F04EFD16E00E48007830B1012807D0AC
:10027000022808D003280CD108E003F051FB08E065
:1002800003F0D6FB05E003F00BFD02E003F0B5FD43
:1002900000BF00BFE7E70000340000207C10002012
:1002A0004E100020704700BFFEE700BFFEE700BF12
:1002B000FEE700BFFEE770477047704770470000D9
:1002C0000CB50020019000906C48006840F480302C
:1002D0006A49086000BF6948006800F40030009077
:1002E0000198401C0190009818B90198B0F5A06FD2
:1002F000F1D16248006800F4003010B10120009094
:1003000001E0002000900098012843D15C4800687B
:1003100040F010005A4908600846006820F00300C9
:1003200008600846006840F00200086053484068D2
:10033000524948600846406848600846406840F4B2
:10034000806048600846406820F47C104860084699
:10035000406840F4E81048600846006840F080704B
:10036000086000BF4548006800F000700028F9D020
:100370004248406820F00300404948600846406811
:1003800040F00200486000BF3C48406800F00C00AC
:100390000828F9D10CBD10B5FFF792FF10BD10B5BC
:1003A0003648006840F0010034490860084640685B
:1003B00034490840314948600846006832490840DD
:1003C0002E4908600846006820F48020086008462E
:1003D000406820F4FE0048604FF41F008860FFF77B
:1003E000DAFF4FF000602949086010BD10B5002108
:1003F00000200022214B5B6803F00C0121B104298D
:1004000006D0082928D107E0214B224C236027E0A1
:100410001F4B204C236023E0184B5B6803F47010E3
:10042000164B5B6803F48032022303EB904022B941
:10043000194B4343174C23600DE0104B5B6803F4EA
:10044000003323B1144B4343124C236003E0104BA1
:100450004343104C236003E00D4B0E4C236000BF60
:1004600000BF064B5B68C3F303130C4CE15C094B04
:100470001B68CB40074C236010BD000000100240F9
:10048000002002400000FFF8FFFFF6FE08ED00E04C
:1004900000127A000000002000093D000400002046
:1004A0000948804709480047FEE7FEE7FEE7FEE708
:1004B000FEE7FEE7FEE7FEE7FEE7FEE70448054944
:1004C000054A064B704700009F030008ED00000836
:1004D00080160020801C002080180020801800203A
:1004E00031490143314A1160704770B50021002342
:1004F0000F22C47804B32D4C246804F4E064C4F5DE
:10050000E064210AC1F10403CA40447804FA03F10B
:100510008478144021430901254C0678A1550478BC
:1005200004F01F050124AC4005786D11AD0005F104
:10053000E025C5F8004109E0047804F01F05012416
:10054000AC401C4D0678761145F8264070BD1A4A1D
:100550000A400243154B1B1F1A60704739B1134AFA
:10056000121D12680243114B1B1D1A6006E00F4A50
:10057000121D126882430D4B1B1D1A607047042820
:1005800008D14FF0E021096941F004014FF0E02269
:10059000116107E04FF0E021096921F004014FF0FB
:1005A000E0221161704700000000FA050CED00E048
:1005B00000E400E080E100E080FFFF1F10B504468A
:1005C000FA48844208D10121401500F0ABFE002119
:1005D000601500F0A7FE17E0F548844208D101211C
:1005E000001500F09FFE0021201500F09BFE0BE09F
:1005F000F048844208D10121C80300F093FE002195
:100600004FF4004000F08EFE10BD30B502460020D1
:1006100000235068E84C20400D790C6844EA05241A
:10062000204350609068E54C2040D1E902542C43AF
:100630004D7944EA450420439060D06A20F470006C
:100640000C7C641EE4B2234340EA0350D06230BD08
:1006500000210160017141718160C160012101745B
:10066000704721B1826842F00102826003E0826833
:1006700022F001028260704721B1826842F48072E8
:10068000826003E0826822F480728260704710B555
:100690000023CBB21AB144681C43446002E04468B2
:1006A0009C43446010BD816841F00801816070473F
:1006B000014600208A6802F008020AB1012000E029
:1006C00000207047816841F0040181607047014655
:1006D00000208A6802F004020AB1012000E0002034
:1006E000704721B1826842F4A002826003E0826810
:1006F00022F4A00282607047014600208A6802F45A
:1007000080020AB1012000E00020704710B50A46BF
:1007100000210023416821F46041531E41EA433126
:10072000416010BD21B1426842F40062426003E0C2
:10073000426822F4006242607047F0B504460D46FC
:1007400000200021092D11DDE068A5F10A0606EB65
:100750004607072606FA07F18843A5F10A0606EBC5
:10076000460603FA06F10843E0600CE0206905EB59
:100770004507072606FA07F1884305EB450603FA05
:1007800006F108432061072A0FDA606B561E06EB5C
:1007900086071F2606FA07F18843561E06EB8606D3
:1007A00005FA06F10843606322E00D2A0FDA206B98
:1007B000D61F06EB86071F2606FA07F18843D61FC9
:1007C00006EB860605FA06F10843206310E0E06AAE
:1007D000A2F10D0606EB86071F2606FA07F18843ED
:1007E000A2F10D0606EB860605FA06F10843E06263
:1007F000F0BD21B1826842F48012826003E0826819
:1008000022F48012826070470146C86C80B2704743
:1008100066484C300068704721B1426842F48062FB
:10082000426003E0426822F480624260704721B176
:10083000426842F48052426003E0426822F48052EF
:10084000426070470A460021816821F4E04111436B
:100850008160704721B1826842F40042826003E007
:10086000826822F400428260704721B1826842F4BB
:100870000212826003E0826822F4021282607047F2
:10088000014600208A6802F400120AB1012000E04B
:1008900000207047F0B504461546002000220026CF
:1008A000092911DDE068A1F10A0707EB470C0727CA
:1008B00007FA0CF29043A1F10A0707EB470703FA86
:1008C00007F21043E0600CE0206901EB410C0727C0
:1008D00007FA0CF2904301EB410703FA07F21043C9
:1008E0002061A06BC0F30156EF1C06F1010CA7EBD1
:1008F0000C0707EB870C1F2707FA0CF29043EF1C3D
:1009000006F1010CA7EB0C0707EB870701FA07F2CA
:100910001043A063F0BD10B50A4600210023816B8F
:1009200021F44011531E41EA0351816310BD08B503
:10093000002300930090009B0B440093009B1A60DF
:1009400008BD08B5024600200090009201F1280081
:10095000009B184400900098006880B208BD0A46C9
:1009600000214168164B19401143416070474162B4
:10097000826270470A460021416821F01F0111433D
:100980004160704740B109490831096841F40001EC
:10099000064A0832116007E004490831096821F469
:1009A0000001024A08321160704700000024014033
:1009B00000280140003C0140FFFEF0FFFDF7F1FF81
:1009C000FFFD3FFF0246002013680B400BB10120E2
:1009D00000E000207047CA430260704770B50246CD
:1009E0000020002300240B125568CEB205EA06044D
:1009F00015681D4015B10CB1012000E0002070BD4C
:100A000000220A12D34303607047000010B5012092
:100A100000F0A2FC002000F09FFC10BD2A490860F5
:100A200070472949091F08607047274984310860C9
:100A3000704701460020254A10884FF67F4210403B
:100A40000843224A10807047014600201F4A108840
:100A50004FF68072104008431C4A1080704708B55A
:100A600000220092194A2C3A0092009A0244009205
:100A7000009A116008BD08B5014600200090134897
:100A80002C3800900098084400900098008808BD19
:100A90000D489C300068C0B270470C480830008890
:100AA00040F0010009490831088070470648A0302D
:100AB0000068C0B2704705480830008840F0020066
:100AC000024908310880704704860D422C6C0040B2
:100AD000002044490860091D0860091D0860091DBF
:100AE000086041483F4914310860704700213D4982
:100AF0008279002A3AD00A46126803689A430B4664
:100B00001A600A1D126803689A430B1D1A60027965
:100B100011440A6803681A430A60324A08321268AC
:100B200003689A432F4B08331A601A1D1268036832
:100B30009A432C4B0C331A604279102A0ED11A1F9B
:100B4000126803681A43274B08331A601A1D12688B
:100B500003681A43234B0C331A600DE02149427994
:100B600011440A6803681A430A6005E002791144D7
:100B70000A6803689A430A607047002101600171A6
:100B80000C214171002181717047164910310968AB
:100B90000143144A10321160704701460020114A87
:100BA000143212680A400AB1012000E000207047A8
:100BB0000C49143108607047014600200022094B9F
:100BC0001B6803EA0102074B14331B680B4013B187
:100BD0000AB1012000E0002070470249143108608A
:100BE0007047000000040140FFFF0F0010B50446ED
:100BF000CC48844208D10121042000F093FB00215D
:100C0000042000F08FFB46E0C748844208D1012150
:100C1000082000F087FB0021082000F083FB3AE069
:100C2000C248844208D10121102000F07BFB002142
:100C3000102000F077FB2EE0BD48844208D101214E
:100C4000202000F06FFB0021202000F06BFB22E051
:100C5000B848844208D10121402000F063FB002104
:100C6000402000F05FFB16E0B348844208D1012128
:100C7000802000F057FB0021802000F053FB0AE0A9
:100C8000AE48844207D10121801500F04BFB0021C2
:100C9000A01500F047FB10BD10B50121084600F07B
:100CA00041FB0021012000F03DFB10BD2DE9F0418A
:100CB000024600250026002000230024002791F88A
:100CC00003C00CF00F0591F803C00CF0100CBCF140
:100CD000000F03D091F802C04CEA050591F800C05E
:100CE000BCF1000F31D0146800202BE04FF0010C54
:100CF0000CFA00F3B1F800C00CEA03069E4220D1C2
:100D000083004FF00F0C0CFA03F7BC4305FA03FC09
:100D10004CEA040491F803C0BCF1280F06D14FF04F
:100D2000010C0CFA00FCC2F814C00AE091F803C0F0
:100D3000BCF1480F05D14FF0010C0CFA00FCC2F8D1
:100D400010C0401C0828D1D31460B1F800C0BCF119
:100D5000FF0F34DD546800202EE000F1080C4FF046
:100D6000010808FA0CF3B1F800C00CEA03069E4231
:100D700021D183004FF00F0C0CFA03F7BC4305FAA6
:100D800003FC4CEA040491F803C0BCF1280F05D120
:100D900000F1080C08FA0CF8C2F8148091F803C0AE
:100DA000BCF1480F07D100F1080C4FF0010808FA18
:100DB0000CF8C2F81080401C0828CED35460BDE85F
:100DC000F0814FF6FF710180022181700421C17012
:100DD00070470246002093680B400BB1012000E0F1
:100DE000002070470146886880B2704702460020A4
:100DF000D3680B400BB1012000E000207047014692
:100E0000C86880B2704701617047416170470AB19C
:100E1000016100E041617047C16070474FF480326A
:100E20000A438261816182618269826970470246F8
:100E30000020434B18684FF68073184040EA0210B8
:100E400008433F4B186070473E49C8617047F0B592
:100E50000A46002300240021002500F00046B6F1D8
:100E6000004F02D1364EF16901E0354E7168C0F392
:100E7000034583B200F44016B6F5401F08D121F0B7
:100E800070612F4E766826F070662D4F7E6012E0FE
:100E900000F48016B6F5801F06D1032606FA05F485
:100EA000A14341F0706106E0460D360103FA06F6F3
:100EB000B14341F0706122B1460D360103FA06F6E6
:100EC000314300F00046B6F1004F02D11C4EF161F3
:100ED00001E01B4E7160F0BD30B500228B071C0F86
:100EE0000F2303FA04F2164B08338C1053F8243006
:100EF0009343134C08348D1044F8253023468C104E
:100F000053F824308C07240F00FA04F423430C4CCC
:100F100008348D1044F8253030BD0A49DC310860B2
:100F20007047000000080140000C01400010014023
:100F30000014014000180140001C01400020014045
:100F4000000001400000204210B50121080700F018
:100F5000F6F900214FF0805000F0F1F910BD2A4958
:100F60000862704728490861704701460020274AF7
:100F7000106820F0E0000843106070472249A0315B
:100F80000860704710B502460020204B186820F01A
:100F90000300104318601E4B1B6843F004031C4CF5
:100FA0002360012901D130BF00E020BF184B1B682E
:100FB00023F00403164C236010BD1448006840F071
:100FC0000400124908600846006840F0020008600A
:100FD0000F48006840F004000D49086000BF00BFE2
:100FE00030BF704701460020084A52680A400AB1E3
:100FF000012000E0002070470449096841EA8001AF
:10100000024A11607047000000000E42007000406C
:1010100010ED00E0DF48006840F00100DD490860A5
:1010200008464068DC490840DA49486008460068DC
:10103000DA490840D74908600846006820F4802053
:1010400008600846406820F4FE0048604FF41F0026
:1010500088607047CF49096821F48031CD4A11601A
:101060001146096821F480211160B0F5803F03D05A
:10107000B0F5802F0ED106E0C649096841F48031F1
:10108000C44A116007E0C349096841F4A021C14A7C
:10109000116000E000BF00BF704710B5014600229C
:1010A000002300204A11012A02D1BA4C236806E02D
:1010B000022A02D1B74C236A01E0B64C636A01F000
:1010C0001F02012494401C400CB1012000E00020CC
:1010D00010BD38B5002000900024002500BF31204D
:1010E000FFF7DBFF05460098401C00900098B0F524
:1010F000A06F01D0002DF2D03120FFF7CEFF08B154
:10110000012400E00024204638BD01460020A14A09
:10111000106820F0F80040EAC10010607047A04954
:1011200008607047024600209A4B586820F47C10F3
:1011300042EA01031843974B586070479849086684
:10114000704701460020934A506820F0030008438E
:10115000506070478F48406800F00C0070470146AF
:1011600000208C4A506820F0F0000843506070471F
:1011700001460020874A506820F4E0600843506030
:10118000704701460020834A506820F4605040EACE
:10119000C1005060704729B17E4A527A02437D4BAC
:1011A0005A7204E07B4A527A82437A4B5A727047F1
:1011B0007B49D8310860704701460020754A506865
:1011C00020F440400843506070470021714A2032AB
:1011D0001170704A82F82010012802D004280AD128
:1011E00004E001216B4A2032117005E00521694AB3
:1011F0002032117000E000BF00BF704769490860ED
:1012000070476449096A0143624A1162704765493F
:1012100044390860704730B50021002200240023C3
:101220005C4D6D6805F00C0121B1042905D0082939
:1012300023D105E05C4D056022E05B4D05601FE0B9
:10124000544D6D6805F47012524D6D6805F480348C
:10125000022505EB92421CB9544D554305600BE045
:101260004C4D6D6805F400351DB1504D554305607A
:1012700002E04D4D5543056002E04B4D056000BF57
:1012800000BF444D6D6805F0F0010909484D6B5CE5
:101290000568DD4045603F4D6D6805F4E061090A71
:1012A000434D6B5C4568DD4085603A4D6D6805F4E3
:1012B0006051C90A3E4D6B5C4568DD40C560354DE7
:1012C0006D6805F44041890B3A4D6B5CC568B5FB10
:1012D000F3F5056130BD29B12E4A526902432D4B09
:1012E0005A6104E02B4A526982432A4B5A61704783
:1012F00029B1284A92690243264B9A6104E0254AA3
:1013000092698243234B9A61704729B1214AD2697D
:101310000243204BDA6104E01E4AD26982431D4B2E
:10132000DA61704729B11B4AD2680243194BDA606F
:1013300004E0184AD2688243164BDA60704729B13C
:10134000144A12690243134B1A6104E0114A1269EC
:101350008243104B1A617047124940390860704748
:101360000F49C86470470B49C87170470948406A03
:1013700040F0807007494862704701460020054AE6
:1013800092680A400AB1012000E00020704701493C
:1013900088727047001002400000FFF8FFFFF6FE61
:1013A000000042428004424200127A0000093D00DF
:1013B000140000202400002029B1504A1288024362
:1013C0004E4B1A8004E04D4A128882434B4B1A80E0
:1013D00070474A48001D008840F010004749091D29
:1013E000088070474548001D00884FF6EF7108409F
:1013F0004249091D08807047002140481C3001887F
:10140000001F008841EA0040704700B50246FFF720
:10141000E0FF100C394918310880091D0A80FFF7D8
:10142000E1FF00BD00B50246FFF7D3FFC2F3034062
:10143000324908310880091D0A80FFF7D3FF00BD3B
:1014400000B50246FFF7C5FF100C2C49203108807B
:10145000091D0A80FFF7C6FF00BD00202749103193
:1014600009880907080B2549143109880843704782
:1014700000BF2248001D008800F020000028F8D09E
:1014800070471E48001D00884FF6F77108401B4941
:10149000091D088000BF1948001D008800F00800E1
:1014A0000028F8D0704701460020144A121D128807
:1014B0000A400AB1012000E0002070470F49091DD1
:1014C000098881430D4A121D118070470146002092
:1014D0000A4A121D12880A40D0B2084A12880A40ED
:1014E00012B108B1012000E0002070470349091D36
:1014F00009888143014A121D11807047002800406D
:1015000010B50446FE48844208D10121C014FFF7FB
:1015100009FF0021E014FFF705FFC4E0B4F1804F9C
:1015200008D101210846FFF70AFF00210120FFF73B
:1015300006FFB8E0F348844208D101210220FFF7FA
:10154000FEFE00210220FFF7FAFEACE0EE488442E6
:1015500008D101210420FFF7F2FE00210420FFF74B
:10156000EEFEA0E0E948844208D101210820FFF7FF
:10157000E6FE00210820FFF7E2FE94E0E448844202
:1015800008D101211020FFF7DAFE00211020FFF71B
:10159000D6FE88E0DF48844208D101212020FFF7F1
:1015A000CEFE00212020FFF7CAFE7CE0DA4884420C
:1015B00008D101214014FFF7B5FE00216014FFF7A8
:1015C000B1FE70E0D548844209D10121C804FFF77B
:1015D000A9FE00214FF40020FFF7A4FE63E0D048ED
:1015E000844209D101210805FFF79CFE00214FF438
:1015F0008010FFF797FE56E0CA48844209D10121C6
:101600004805FFF78FFE00214FF40010FFF78AFE18
:1016100049E0C548844208D101214020FFF78FFEF0
:1016200000214020FFF78BFE3DE0C048844208D1F6
:1016300001218020FFF783FE00218020FFF77FFE3D
:1016400031E0BB48844208D101218015FFF777FEC5
:101650000021A015FFF773FE25E0B648844209D1AA
:1016600001210804FFF75EFE00214FF48030FFF7F0
:1016700059FE18E0B048844209D101214804FFF71F
:1016800051FE00214FF40030FFF74CFE0BE0AB4859
:10169000844208D101218804FFF744FE00214FF461
:1016A0008020FFF73FFE10BD00220288944B984235
:1016B0000ED0994B98420BD0B0F1804F08D0914B8F
:1016C000984205D0904B984202D0904B984204D15A
:1016D0004FF68F731A404B881A438D4B984207D0B0
:1016E0008C4B984204D04FF6FF431A40CB881A43E4
:1016F00002808B8883850B880385814B98420BD0B1
:10170000854B984208D08B4B984205D08A4B984223
:1017100002D08A4B984201D10B7A0386012383823F
:10172000704770B5002400220023058C4FF6FE762A
:1017300035400584028C8388048B4FF68F752C40CE
:10174000B51E2C400D882C43751E2A400D892A4356
:101750004D882A436A4DA8420BD06F4DA84208D04D
:10176000744DA84205D0744DA84202D0734DA842D2
:1017700013D14FF6F7752A404D892A434FF6FB7572
:101780002A408D882A434FF6FF652B404FF6FF55C0
:101790002B408D892B43CD892B4383800483CD88B7
:1017A0008586028470BD70B5002400220023058C5C
:1017B0004FF6EF7635400584028C8388048B48F61B
:1017C000FF752C404FF6FF452C400D884FF6FF76F5
:1017D00006EA05252C434FF6DF752A400D8906EAF7
:1017E00005152A434D8806EA05152A43444DA842AB
:1017F00002D0494DA8421DD14FF67F752A404D8930
:101800004FF6FF7606EA05152A434FF6BF752A40C4
:101810008D8806EA05152A434FF6FF352B404FF217
:10182000FF752B408D8906EA85052B43CD8906EA95
:1018300085052B4383800483CD880587028470BD92
:1018400070B5002400220023058C4FF6FF6635405A
:101850000584028C8388848B4FF68F752C404FF65D
:10186000FC752C400D882C434FF6FF552A400D89FE
:101870004FF6FF7606EA05252A434D8806EA052538
:101880002A431F4DA84202D0234DA8421DD14FF23A
:10189000FF752A404D894FF6FF7606EA05252A4353
:1018A0004FF6FF352A408D8806EA05252A434EF675
:1018B000FF752B404DF6FF752B408D8906EA051507
:1018C0002B43CD8906EA05152B4383808483CD887D
:1018D0008587028470BD70B5002200230024058C2A
:1018E0004EF6FF7635400584038C8488828B48F65B
:1018F000FF752A404FF6FF452A400D8820E0000082
:10190000002C01400004004000080040000C004092
:10191000001000400014004000340140004C014021
:10192000005001400054014000180040001C0040DD
:1019300000200040004001400044014000480140B8
:101940004FF6FF7606EA05252A434DF6FF752B4034
:101950000D8906EA05352B434D8806EA05352B43EC
:10196000FA4DA84202D0FA4DA84208D14BF6FF75B5
:101970002C408D894FF6FF7606EA85152C4384802E
:101980008283CD88A0F84050038470BD828B4FF2D3
:10199000FF331A408283828B4FF6FF7303EA0123E1
:1019A0001A4382837047F0B50C4615460022002189
:1019B0000026078C4EF6FF7C07EA0C070784828B13
:1019C000018C4FF6FF7707EA043640F6FF473A40AE
:1019D0004FF6FF7707EA05273A434FF6FF7707EA06
:1019E00003373A43D94FB8420ED0D94FB8420BD043
:1019F000B0F1804F08D0D74FB84205D0D64FB8428B
:101A000002D0D64FB84206D14DF6FF77394046F4A2
:101A10008057394305E047F6FF57394044F4805773
:101A2000394382830184F0BD828B4FF6F3731A40F1
:101A30008283828B0A4382837047F0B50C46154639
:101A4000002200210026078C4FF6FF6C07EA0C07E6
:101A50000784828B018C4FF6FF7707EA04264FF646
:101A60000C773A404FF6FF7707EA03172F433A43C4
:101A7000B64FB8420ED0B64FB8420BD0B0F1804F3F
:101A800008D0B44FB84205D0B34FB84202D0B34FDC
:101A9000B84206D14FF6FF57394046F480773943B4
:101AA00005E04FF2FF57394044F480773943828391
:101AB0000184F0BD028B4FF2FF331A400283028B88
:101AC0004FF6FF7303EA01231A4302837047F0B510
:101AD0000C461546002200210026078C4FF6EF7CAD
:101AE00007EA0C070784028B018C4FF6FF7707EAA1
:101AF000041640F6FF473A404FF6FF7707EA0337F0
:101B00003A434FF6FF7707EA05273A438F4FB8422B
:101B10000ED08F4FB8420BD0B0F1804F08D08D4F10
:101B2000B84205D08C4FB84202D08C4FB84206D193
:101B30004FF6DF77394046F01007394305E04FF69E
:101B40005F77394044F01007394302830184F0BDC8
:101B5000028B4FF6F3731A400283028B0A4302830F
:101B60007047F0B50C46154600220021068C4FF652
:101B7000FE773E400684028B018C4FF60C76324095
:101B80007E1C06EA03162E433243704EB0420ED03E
:101B90006F4EB0420BD0B0F1804F08D06D4EB042C6
:101BA00005D06D4EB04202D06C4EB04206D14FF619
:101BB000FD76314044F00106314305E04FF6F576FD
:101BC000314044F00106314302830184F0BD70B519
:101BD00005460C465D4885420ED05D4885420BD0D7
:101BE000B5F1804F08D05B48854205D05A48854200
:101BF00002D05A48854200D100E000BF208850B989
:101C00002389A28861882846FFF7ABFFE188284630
:101C1000FFF79EFF25E0208804280AD12389A288A7
:101C200061882846FFF753FFE1882846FFF742FF07
:101C300017E0208808280AD12389A28861882846CD
:101C4000FFF7FBFEE1882846FFF7EEFE09E0238957
:101C5000A28861882846FFF7A6FEE1882846FFF79C
:101C600095FE70BD2DE9F04105460C460026012782
:101C7000608808B9022600E00026A088012801D16A
:101C8000022700E001272088A0B92389A288618863
:101C90002846FFF766FFE1882846FFF759FF2389AA
:101CA0003A4631462846FFF712FFE1882846FFF7FB
:101CB00001FF13E02389A28861882846FFF707FF08
:101CC000E1882846FFF7F6FE23893A463146284642
:101CD000FFF747FFE1882846FFF73AFFBDE8F081AC
:101CE0000A884B881A438B881A43CB881A430B897E
:101CF0001A434B891A438B891A43A0F84420704732
:101D00004FF6FF71818000210180C1804180017206
:101D100070470021018041808180C1800181418123
:101D20008181C18170470021018041800121818032
:101D30000021C180018170470021018041808180A4
:101D4000C18001814181818170470000002C0140E8
:101D5000003401400004004000080040000C004036
:101D600021B1028842F00102028004E002884FF6AD
:101D7000FE731A400280704731B1B0F8442042F43B
:101D80000042A0F8442005E0B0F84420C2F30E025F
:101D9000A0F8442070471AB183890B43838102E085
:101DA00083898B43838170478182704741EA0203B4
:101DB000A0F8483070471AB183890B43838102E051
:101DC00083898B438381704701894FF6F8721140F4
:101DD000018170470A46002101894FF68F7319402F
:101DE00011430181704730B504460D46294620460F
:101DF000FFF7F0FF208940F00700208130BD2DE97A
:101E0000F04104460D4616461F46602D06D13B465E
:101E1000012231462046FFF75AFE05E03B460122EB
:101E200031462046FFF79DFE29462046FFF7D2FFA8
:101E3000208940F007002081BDE8F08130B50C46D4
:101E400000210189C9B24FF6FF7505EA0325154344
:101E500025432943018130BD2DE9F04105460E4659
:101E600017469846002443463A4631462846FFF72F
:101E7000E5FF2C894FF6F870044044F007044FF654
:101E80008F70044044F070042C81BDE8F081F0B5FF
:101E900004460D4616461F463B4632462946204616
:101EA000FFF7CCFF208940F480402081F0BD018500
:101EB000828270470A46002101884FF68F731940CD
:101EC000114301807047F0B50C4615461E460021AF
:101ED000002200230189028B038C4FF6F8773940EA
:101EE00021434FF6FC473A4040F201173A434FF680
:101EF000DD773B404FF6FF7707EA06172F433B435A
:101F0000018102830384F0BD0A460021018B4FF654
:101F10008F7319401143018370470A460021018BDA
:101F200048F6FF7319404FF6FF7303EA0223194383
:101F3000018370470A460021818B4FF68F73194049
:101F40001143818370470A460021818B48F6FF7355
:101F500019404FF6FF7303EA022319438183704748
:101F600021B1028842F08002028004E002884FF62C
:101F70007F731A400280704721B1828842F00402C8
:101F8000828004E082884FF6FB731A40828070479B
:101F900021B1828842F00802828004E082884FF6F4
:101FA000F7731A408280704721B1828842F00102A3
:101FB000828004E082884FF6FE731A408280704768
:101FC0000A460021018B4FF6F77319401143018334
:101FD00070470A460021018B4FF2FF7319404FF6FC
:101FE000FF7303EA02231943018370470A46002165
:101FF000818B4FF6F77319401143818370470A466E
:102000000021818B4FF2FF7319404FF6FF7303EAF3
:1020100002231943818370470A460021018B4FF642
:10202000FB7319401143018370470A460021018B5D
:102030004FF6FF3319404FF6FF7303EA02231943AB
:10204000018370470A460021818B4FF6FB731940CC
:102050001143818370470A460021818B4FF6FF337D
:1020600019404FF6FF7303EA022319438183704737
:102070000A460021018B4FF67F73194011430183FB
:1020800070470A460021018BC1F30E014FF6FF7322
:1020900003EA02231943018370470A460021818B1A
:1020A0004FF67F7319401143818370470A46002120
:1020B000818BC1F30E014FF6FF7303EA022319432C
:1020C000818370470A460021018C4FF6FD73194049
:1020D0001143018470470A460021018C4FF6F773C3
:1020E00019401143018470470A460021018C4FF6C4
:1020F000DF7319404FF6FF7303EA0213194301849B
:1021000070470A460021018C4FF67F7319404FF645
:10211000FF7303EA02131943018470470A46002142
:10212000018C4FF6FF5319404FF6FF7303EA022369
:102130001943018470470A460021018C4FF2FF7356
:1021400019404FF6FF7303EA0223194301847047D5
:102150000A460021018C4DF6FF7319404FF6FF73BC
:1021600003EA023319430184704730B50023012488
:102170008C40A3B2048C9C430484048C02FA01F5C5
:10218000ADB22C43048430BD30B5002304248C4010
:10219000A3B2048C9C430484048C02FA01F5ADB212
:1021A0002C43048430BD70B503460020002418463B
:1021B000183001258D40ACB21D8CA5431D8409B19A
:1021C000082909D100EB6100056825F0700505605C
:1021D0000568154305600EE00D1FC5F34E05284444
:1021E000056825F4E045056005684FF6FF7606EAC8
:1021F00002263543056070BD21B1028842F002021B
:10220000028004E002884FF6FD731A400280704796
:1022100021B1028842F00402028004E002884FF6F5
:10222000FB731A400280704721B1828842F080021D
:10223000828004E082884FF67F731A408280704764
:1022400002884FF6F7731A40028002880A43028020
:10225000704782884FF68F731A40828082880A43C3
:102260008280704702894FF6F8731A400281028912
:102270000A430281704702894FF67F731A40028138
:1022800002890A43028170478184704781857047C3
:10229000818670470187704781877047A0F840109A
:1022A000704702884FF6FF431A40028002880A43B3
:1022B000028070470146888E70470146088F70473C
:1022C0000146888F70470146B1F8400070470146CB
:1022D000888C70470146088D704702460020138A9B
:1022E0000B400BB1012000E000207047CA4302827E
:1022F000704730B50246002000230024158A05EA05
:102300000103958905EA010413B10CB1012000E035
:10231000002030BDCA4302827047000010B5044659
:10232000FB48844209D101218803FEF7FBFF00210D
:102330004FF48040FEF7F6FF32E0F648844209D1C0
:1023400001214804FEF7FBFF00214FF40030FEF7A7
:10235000F6FF25E0F048844209D101218804FEF708
:10236000EEFF00214FF48020FEF7E9FF18E0EB4874
:10237000844209D10121C804FEF7E1FF00214FF496
:102380000020FEF7DCFF0BE0E548844208D1012184
:102390000805FEF7D4FF00214FF48010FEF7CFFFB1
:1023A00010BD2DE9F04786B005460E460024A24632
:1023B00000BFA1460027B08900B100BF2F462C8A7C
:1023C0004CF6FF700440F08804432C82AC894EF632
:1023D000F3100440B08831890843718908430443ED
:1023E000AC81AC8A4FF6FF400440B0890443AC8214
:1023F00001A8FEF710FFC648874202D1DDF810A001
:1024000001E0DDF80CA0A88900F4004040B10AEB1F
:10241000CA0000EB0A1031684900B0FBF1F807E090
:102420000AEBCA0000EB0A1031688900B0FBF1F832
:102430006420B8FBF0F004012009642101FB10893D
:10244000A88900F4004040B1322000EBC900B0FB85
:10245000F1F000F00700044308E0322000EB09101F
:102460006421B0FBF1F000F00F0004432C8106B0B2
:10247000BDE8F0874FF41651016000218180C180D2
:1024800001810C21418100218181704710B50246F4
:102490000020108A4FF2FF0318400B884C8823431A
:1024A0008C882343CC8823431843108210BD00211D
:1024B000018041808180C180704721B1828942F4CE
:1024C0000052828104E082894DF6FF731A408281B6
:1024D0007047F0B50346002400260025002040F692
:1024E0006A17B94200D100BF1846C1F3421401F087
:1024F0001F06012707FA06F5012C01D10C3004E074
:10250000022C01D1103000E014301AB107682F43BB
:10251000076002E00768AF430760F0BD1AB1838A25
:102520000B43838202E0838A8B4383827047028A53
:102530004FF6F0731A400282028A0A430282704701
:1025400082894FF2FF731A40828182890A43828115
:10255000704721B1828942F00202828104E08289BF
:102560004FF6FD731A4082817047028A4FF6DF737F
:102570001A400282028A0A430282704721B1028A0B
:1025800042F48042028204E0028A4BF6FF731A4052
:1025900002827047C1F30802828070470146888832
:1025A000C0F308007047818941F0010181817047C3
:1025B000028BD2B20283028B42EA0122028370476D
:1025C000028B02F47F420283028B0A43028370472C
:1025D00021B1828A42F02002828204E0828A4FF690
:1025E000DF731A408282704721B1828A42F0100262
:1025F000828204E0828A4FF6EF731A40828270472B
:1026000021B1828A42F00802828204E0828A4FF677
:10261000F7731A408282704721B1828942F40042E6
:10262000828103E08289C2F30E028281704721B168
:10263000828A42F40062828204E0828A4FF2FF734F
:102640001A4082827047828A4FF6FB731A40828258
:10265000828A0A438282704721B1828A42F0020252
:10266000828204E0828A4FF6FD731A4082827047AC
:1026700002460020B1F5007F00D100BF13880B4057
:102680000BB1012000E00020704701F40072B2F5A8
:10269000007F00D100BFCA430280704770B5024678
:1026A000002400230025002040F66A16B14200D124
:1026B00000BFC1F3421501F01F03012606FA03F320
:1026C000012D02D19689334006E0022D02D1168AEF
:1026D000334001E0968A33400C12012606FA04F4D6
:1026E0001688344013B10CB1012000E0002070BD09
:1026F00010B50022002340F66A14A14200D100BFA9
:102700000A1201249440A3B2DC43048010BD0000EF
:10271000003801400044004000480040004C0040A8
:102720000050004010B56FF00400FDF728FF2E4860
:1027300000682E49B0FBF1F02D490870084600787A
:1027400000EB4001C1EBC0104FF6FF7101EAC00081
:102750002849088010BD0146254A12784A434FF0A7
:10276000E0235A6100229A611A46126942F001027E
:102770001A6100BF4FF0E022106900F001021AB1A7
:1027800000F48032002AF5D04FF0E022126922F0E6
:1027900001024FF0E0231A6100229A61704701465E
:1027A000144A12884A434FF0E0235A6100229A618A
:1027B0001A46126942F001021A6100BF4FF0E0228E
:1027C000106900F001021AB100F48032002AF5D03D
:1027D0004FF0E022126922F001024FF0E0231A616B
:1027E00000229A61704700000000002000127A0069
:1027F000280000202A000020014600BF704700BFCB
:102800006B4A128802F04002002AF9D0C2B2684B2B
:102810001B1D1A80704710B586B00446012144F292
:102820000400FEF765FD4FF40070ADF814000320BE
:102830008DF8160018208DF8170005A95D48FEF7E1
:1028400035FA4FF48060ADF8140004208DF81700BD
:1028500005A95848FEF72AFA25208DF80000012026
:102860008DF8010003208DF8020001208DF803008F
:102870006846FDF73AFE01940020ADF80800ADF877
:102880000A00ADF80C00ADF810000C20ADF80E00F9
:1028900001A94748FFF785FD012240F22551444830
:1028A000FFF717FE01214248FFF707FE06B010BDF3
:1028B00010B586B0044601210420FEF719FD012160
:1028C0004804FEF722FD0420ADF8140003208DF823
:1028D000160018208DF8170005A93648FEF7E6F90E
:1028E0000820ADF8140004208DF8170005A9314820
:1028F000FEF7DCF926208DF8000001208DF801009C
:1029000002208DF8020001208DF803006846FDF7D3
:10291000ECFD01940020ADF80800ADF80A00ADF818
:102920000C00ADF810000C20ADF80E0001A92248F3
:10293000FFF737FD012240F225511F48FFF7C9FD7F
:1029400001211D48FFF7B9FD06B010BD10B540F2DA
:1029500025511748FFF7A2FE18B11548FFF71EFED4
:10296000C4B210BD10B540F225511348FFF796FED2
:1029700030B11148FFF712FEC4B2204602F089FBC5
:1029800010BD00BF0A49098801F080018029F9D1F2
:102990000749091D0880704700BF0749098801F0F1
:1029A00080018029F9D10449091D08807047000081
:1029B00000380140000801400044004010B50446C2
:1029C0000723012221466248FDF7B7FE0121604836
:1029D000FDF787FE00BF02215D48FDF7F3FF0028E9
:1029E000F9D05B48FDF710FF10BD2DE9F041074617
:1029F0000C460025002605E03846FFF7DFFF0544BA
:102A0000701CC6B2A642F7DBB5FBF4F080B2BDE89D
:102A1000F081F0B503460C460025002623F812404D
:102A2000002110E0481C33F8100023F8110033F89F
:102A30001100484F7F5C00FB07664648405C284415
:102A4000C5B2481CC1B29142ECDBB6FBF5F080B2D6
:102A5000F0BD30B587B0002401214FF40170FEF7BE
:102A600047FC4FF40040FEF7A7FB8020ADF80400C0
:102A700000208DF8070001A93748FEF717F9344800
:102A8000FDF79CFD002002908DF80C008DF80D00E4
:102A90004FF4602004900020059001208DF818006C
:102AA00002A92B48FDF7B1FD01212948FDF7D9FD09
:102AB0002748FDF7F8FD00BF2548FDF7F9FD002880
:102AC000FAD12348FDF7FEFD00BF2148FDF7FFFDC9
:102AD0000028FAD100240BE00720FFF76FFF05461E
:102AE0001E48027829461E48FFF793FF601CC4B2B7
:102AF0001A4800788442EFDB07B030BD2DE9FC5F57
:102B000005210720FFF771FF04461448027821468B
:102B10001348FFF77EFF0090009803F0D8FD804631
:102B20004FF066320F4B03F0E5FD064600220E4BD8
:102B300003F046FC044600224FF0804303F0DAFD28
:102B4000824603F063FB01900198BDE8FC9F000002
:102B500000240140466F00080008014030000020BA
:102B6000B010002066660A400000B0400EB500F0CC
:102B700071F801210846FEF7BBFB00210846FEF76D
:102B8000ABF90120019000208DF8080008208DF895
:102B9000090001A8FDF7AAFF01210020FEF79CF91A
:102BA000022001900C208DF8090001A8FDF79EFF7E
:102BB00006208DF8000000208DF8010001208DF81E
:102BC00002008DF803006846FDF78FFC07208DF8A2
:102BD000000000208DF8010002208DF80200012085
:102BE0008DF803006846FDF780FC0EBD10B50A2085
:102BF000FFF7D5FD1348006850B101F085FF20B103
:102C000000F068FA01F06DFF02E001200E49087043
:102C10000120FDF7E2FF10BD10B50A20FFF7BFFD50
:102C20000848001D006848B900F02EF818B10120CE
:102C30000649087002E00120054908700220FDF7EE
:102C4000CCFF10BD000121423100002033000020E4
:102C50003200002008B501210420FEF749FB0120C5
:102C6000ADF8000028208DF8030069460F48FEF7F4
:102C70001DF80220ADF8000048208DF803006946D9
:102C80000A48FEF713F808BD10B500240DE0084807
:102C9000006840B9601CC4B20A20FFF780FD642CB4
:102CA00003DB012010BD0020FCE7F0E70008014035
:102CB0000401214208B501210420FEF719FB702010
:102CC000ADF8000010208DF8030003208DF80200FD
:102CD00069462F48FDF7EAFF70212D48FEF793F86B
:102CE00008BD2C4800782C4908602A4800782B49F8
:102CF000C1F89401274800782749083108607047D7
:102D00000120254908602549C1F89401224908316C
:102D1000086070472048006820B11E4800781E49AE
:102D2000086002E001201C49086070471A48001D35
:102D3000006828B1174800781749091D086003E0AA
:102D400001201549091D08607047134808300068C4
:102D500028B11048007810490831086003E00120CC
:102D60000D4908310860704700B5FFF7D3FFFFF742
:102D7000DDFFFFF7EAFF00BD00B5FFF7C1FF054823
:102D8000007808B9012000E000200249087000BD69
:102D9000000801403400002090012142000021423F
:102DA00010B54FF40071FB48FEF72DF84FF4807119
:102DB000F848FEF728F84FF48071F648FEF725F83A
:102DC0004FF40071F348FEF720F810BD10B54FF432
:102DD0000071F048FEF717F84FF48071ED48FEF7E8
:102DE00014F84FF48071EB48FEF70DF810BD10B5E4
:102DF0004FF40071E748FEF706F84FF40071E5481C
:102E0000FEF703F810BD2DE9F04105462C464FF4BE
:102E10000071E048FDF7F9FF00261CE0274607F0A7
:102E20008007802F04D17900DA48FDF7ECFF04E039
:102E30004FF48071D748FDF7E8FF6006040E4FF4A9
:102E40000071D448FDF7DFFF4FF40071D148FDF762
:102E5000DCFF701CC6B2082EE0DBBDE8F08110B5C7
:102E60000446FFF79DFF7820FFF7CDFFFFF7BFFF78
:102E70000020FFF7C8FFFFF7BAFF2046FFF7C3FFA8
:102E8000FFF7B5FFFFF7A2FF10BD10B50446FFF72F
:102E900087FF7820FFF7B7FFFFF7A9FF4020FFF774
:102EA000B2FFFFF7A4FF2046FFF7ADFFFFF79FFF3C
:102EB000FFF78CFF10BD70B505460C461CB12846C7
:102EC000FFF7E3FF02E02846FFF7C9FF70BD08B532
:102ED00001210820FEF70CFA4FF44070ADF8000015
:102EE00010208DF8030003208DF802006946A948E0
:102EF000FDF7DCFE4FF44071A648FDF784FF4FF468
:102F00004870FFF74CFC0021AE20FFF7D4FF0021F2
:102F10000846FFF7D0FF00211020FFF7CCFF00216B
:102F20004020FFF7C8FF0021B020FFF7C4FF0021B9
:102F30008120FFF7C0FF0021FF20FFF7BCFF002129
:102F4000A120FFF7B8FF0021A620FFF7B4FF002162
:102F5000A820FFF7B0FF00213F20FFF7ACFF0021C2
:102F6000C820FFF7A8FF0021D320FFF7A4FF00210E
:102F70000846FFF7A0FF0021D520FFF79CFF0021A6
:102F80008020FFF798FF0021D820FFF794FF002151
:102F90000520FFF790FF0021D920FFF78CFF0021CB
:102FA000F120FFF788FF0021DA20FFF784FF0021DE
:102FB0001220FFF780FF0021DB20FFF77CFF0021BC
:102FC0003020FFF778FF00218D20FFF774FF0021EC
:102FD0001420FFF770FF0021AF20FFF76CFF08BD42
:102FE00010B500218D20FFF766FF00211420FFF7A8
:102FF00062FF0021AF20FFF75EFF10BD10B500217A
:103000008D20FFF758FF00211020FFF754FF00210B
:10301000AE20FFF750FF10BD70B500241CE004F196
:10302000B001C8B20021FFF746FF00210846FFF7B4
:1030300042FF00211020FFF73EFF002508E056491F
:1030400001EBC501085D0121FFF735FF681CC5B222
:10305000802DF4DB601CC4B2082CE0DB70BD10B521
:103060000246002000210AE042FA01F303F00103C6
:10307000C1F10704A3400343D8B24B1CD9B20829BD
:10308000F2DB10BD70B5002421E004F1B001C8B23C
:103090000021FFF710FF00210846FFF70CFF002179
:1030A0001020FFF708FF00250DE03B4901EBC501AB
:1030B000C4F10702885CFFF7D2FF06460121FFF743
:1030C000FAFE681CC5B2802DEFDB601CC4B2082C70
:1030D000DBDB70BD70B500240CE0002506E00020AD
:1030E0002D4901EBC5010855681CC5B2802DF6DBE2
:1030F000601CC4B2082CF0DBFFF78EFF70BDF0B58A
:10310000144600267F2801DC3F2900DDF0BD0B4678
:10311000CF1701EB5777C7F3C702CF1701EB5777EC
:10312000FF10A1EBC707FDB20123AB40DEB24CB1EB
:10313000194B03EBC0039B5C3343174F07EBC007EE
:10314000BB5408E0144B03EBC0039B5CB343124F2A
:1031500007EBC007BB5400BFD8E72DE9F047064690
:103160000F4690469946DDF820A034460CE03D46D7
:1031700006E0524629462046FFF7C1FF681CC5B24B
:103180004D45F6DD601CC4B24445F0DDFFF744FF59
:10319000BDE8F087000C0140CE1000202DE9F04F73
:1031A0000446099E00279C464FEAE37A03EB5A7ACD
:1031B000CAF3C70803EBDC7ACAF347097F2C01DCAA
:1031C000072901DDBDE8F08FA2F1200C0CF0FF0211
:1031D00006B1FF260C2B04D0102B09D0202B11D1C7
:1031E0000BE002EB420CDFF894A50AEB4C070AE077
:1031F000DFF88CC50CEB021705E0DFF888A50AEBB9
:10320000821700E0DEE700BF002019E0002511E092
:1032100017F801CB8CEA060C04EB050ADFF868B559
:103220000BEBCA0A01EB000B0AF80BC005F1010C0D
:103230000CF0FF054D45EBDB00F1010C0CF0FF003D
:103240004045E3DB00BFBDE710B50246012000E0CA
:1032500050430B1EA1F10104E1B2F9D110BD2DE9DB
:10326000F84104460F4615461E46DDF81C807F2CAB
:1032700001DC072F01DDBDE8F88111E0CDF8008009
:103280002A78334639462046FFF788FF304606EB5A
:10329000D07104EB6101CCB27F2C00DDEBE76D1C3B
:1032A00028780028EAD100BFE5E72DE9FF4F83B079
:1032B000074691461E46DDE9105A00200290002480
:1032C00038E0301B401EC1B20A20FFF7BDFFB9FB3A
:1032D000F0F00A21B0FBF1F201FB12080298B0B93C
:1032E000701EA04213DDB8F1000F0ED1AB4605EB06
:1032F000DB71491001FB0471C8B22B462022CDF8C6
:1033000000A00499FFF74AFF12E001200290AB46AB
:1033100005EBDB71491001FB0471C8B208F1300103
:10332000CAB22B46CDF800A00499FFF737FF00BFC3
:10333000601CC4B2B442C4DB07B0BDE8F08F2DE915
:10334000FF4F83B0074691461E46DDE9105A002024
:103350000290002438E0301B401EC1B20A20FFF763
:1033600073FFB9FBF0F00A21B0FBF1F201FB120888
:103370000298B0B9701EA04213DDB8F1000F0ED153
:10338000AB4605EBDB71491001FB0471C8B22B465B
:103390003022CDF800A00499FFF700FF12E00120D1
:1033A0000290AB4605EBDB71491001FB0471C8B21A
:1033B00008F13001CAB22B46CDF800A00499FFF7FE
:1033C000EDFE00BF601CC4B2B442C4DB07B0BDE870
:1033D000F08F2DE9FC470546884616469946DDE9FB
:1033E0000A74002E12DA76423B462D2241462846C8
:1033F0000094FFF7D3FE05F10801C8B24B463246F0
:103400004146CDE90074FFF750FF10E03B46202213
:10341000414628460094FFF7C1FE05F10801C8B2F5
:103420004B4632464146CDE90074FFF73EFFBDE80A
:10343000FC87F0B5034614460020002201255FE01A
:10344000002001250FE0D14E365CA75CBE4208D1BA
:10345000CE4F461CBF5D561CA65DB74201D105018B
:1034600005E0861CF0B2C94E365C7F2EEBDC00BF57
:10347000012D22D000200BE02E466D1CC44FBE5DF6
:103480001F18DFF804C30CEBC7077E54461CF0B2CC
:103490001028F1DB00200DE02E466D1CBC4FBF5DF7
:1034A0001E18DFF8E4C20CEBC60C4E1C0CF80670BC
:1034B000461CF0B21028EFDB1DE0561CF2B20020D3
:1034C00008E000261F18DFF8C0C20CEBC7077E54C7
:1034D000461CF0B21028F4DB00200AE000271E187A
:1034E000DFF8A4C20CEBC60C4E1C0CF80670461C90
:1034F000F0B21028F2DB03F11006F3B2961CF2B220
:10350000A65C002E9CD1F0BD2DE9F047044615467F
:10351000089F4FF00009661906F0FF0CCE184FEA1D
:10352000E67A06EB5A7ACAF3C7080E464FEAE17A02
:1035300001EB5A7ACAF3C70015E0072801DDBDE8A0
:10354000F08722460BE04E4609F10109BE5DDFF827
:1035500038A20AEBC20A0AF80060561CF2B26245B1
:10356000F1DB461CF0B24045E7DB00BFE7E770B592
:103570007F2807DD0446C51700EB5565ED11A0EB6C
:10358000C515E8B2032907DD0C46CD1701EB95758B
:10359000AD10A1EB8505E9B200221FE0B2EB410FAF
:1035A00004D0012404EB410494420BD1002306E033
:1035B000FF24C518744E06EBC505AC545B1C082BE4
:1035C000F6DB0AE0002306E00024C5186E4E06EB89
:1035D000C505AC545B1C082BF6DB521C082ADDDB4E
:1035E00070BD2DE9F04706460F469046002445463B
:1035F0000320A0EB480944E07A1BD1B23219D0B2C3
:103600000122FFF77CFD3A1BD1B27219D0B2012220
:10361000FFF775FD3A19D1B27219D0B20122FFF746
:103620006EFD7A19D1B23219D0B20122FFF767FDCF
:103630007A19D1B2321BD0B20122FFF760FD3A19DC
:10364000D1B2721BD0B20122FFF759FD7A1BD1B261
:10365000321BD0B20122FFF752FD3A1BD1B2721BCE
:10366000D0B20122FFF74BFD641CB9F1000F03DA61
:10367000A000801D814404E0601B80000A3081446A
:103680006D1EAC42B8DDBDE8F0872DE9FF4F85B077
:1036900081468A460020049003900798A0EB090514
:1036A0000898A0EB0A06CDF80890CDF804A0002DEC
:1036B00001DD012705E00DB9002702E04FF0FF37DB
:1036C0006D42002E02DD4FF0010806E016B94FF002
:1036D000000802E04FF0FF387642B54201DD2C468B
:1036E00000E034464FF0000B22E0019AD1B2029A7A
:1036F000D0B20122FFF703FD0498284404900398F8
:10370000304403900498A04205DD0498001B049007
:103710000298384402900398A04205DD0398001BEC
:1037200003900198404401900BF101001FFA80FBC7
:10373000601C8345D9DD09B0BDE8F08F2DE9F0416B
:1037400004460D4616461F462B463246294620465D
:10375000FFF79BFF3B46224629462046FFF795FF91
:103760003B46324639462046FFF78FFF3B463246FE
:1037700029463046FFF789FFBDE8F081556F000804
:103780007D7100086D770008CE1000202D8F000895
:103790006C8F0008FE48007810B9FE48007820B30E
:1037A000FB48007838B10020F9490870FA480078E1
:1037B000401EF9490870F748007838B10020F549F3
:1037C0000870F5480078401CF3490870F24800780A
:1037D000032803DD0120F049087006E0EE48007878
:1037E000012802DA0320EC490870704708B5FFF79A
:1037F00071FCEA4840235022002100901820FFF776
:1038000083FE4FF47A70FEF7CAFF4FF47A70FEF72A
:10381000C6FFFFF75FFCE24830233C220021009006
:103820002220FFF771FEDFA206210020FFF701FE34
:103830004FF4FA70FEF7B3FFDDA206210020FFF778
:10384000F8FD4FF4FA70FEF7AAFFDCA20621002073
:10385000FFF7EFFD4FF4FA70FEF7A1FFDBA20621A0
:103860000020FFF7E6FD4FF4FA70FEF798FFDBA2A9
:1038700006210020FFF7DDFD4FF4FA70FEF78FFF01
:10388000FFF728FC08BD10B50446D9480088401C45
:10389000D749088001F030FC01F09CF9D548007848
:1038A000A0B10020D3490870BB48007838B1BA48AD
:1038B0000078D14908700020B749087006E0CE486A
:1038C0000078B54908700020CB490870CB48407893
:1038D000CB490978884205D0C8484078C849087063
:1038E00001F0BEFCC2480088A04218DD0020C0499B
:1038F000088001F07AF801F0D9FCFFF726FAC148F8
:10390000006810B901F0EDF809E0BE48006814281D
:1039100002DAFFF7FFF902E00120BB49086010BDA1
:103920001CB50024FFF7D6FBB8A200211020FFF73A
:1039300080FD00201023B7A2014600903020FFF741
:103940008EFCB6A202211020FFF773FDB5A2022162
:103950003820FFF76EFD002010232F220221009057
:103960003020FFF71BFCB1A204211020FFF761FDFE
:10397000B1A206211020FFF75CFD56E040F6C4100E
:10398000FFF781FF8448007800B14FE02146002016
:10399000FFF7EDFD7E480078F0B100207C4908700B
:1039A00034B1012C08D0022C09D0032C13D109E02A
:1039B000002001F041FC0EE0FFF7DEF90BE001F022
:1039C0004FFC08E09F48007808B9012000E0002083
:1039D0009C49087000BF00BF00201021CDE90010F5
:1039E00086480278022304215820FFF7A8FC002013
:1039F0001021CDE900108148427802230421702073
:103A0000FFF79DFC002010238FA204210090682066
:103A1000FFF725FC5F48007838B100205D49087049
:103A2000601CC4B2032C00DD0024A7E700BF1CBD4E
:103A30002DE9FC41FFF74EFB0020102382A2014636
:103A400000901846FFF70BFC0020102325220146AA
:103A500000907820FFF7A2FB7CA204210020FFF752
:103A6000E8FC7CA206210020FFF7E3FC00201023E5
:103A70003A22042100902020FFF790FB0020102321
:103A80003A22062100902020FFF788FB0020102317
:103A90002E22042100904820FFF780FB00201023F5
:103AA0002E22062100904820FFF778FBF4E04FF427
:103AB0007A70FFF7E8FEFFF76DFE374800780128BF
:103AC00000D0EAE000201021CDE900104B48027838
:103AD000022300210846FFF732FC00201021CDE927
:103AE000001046484278022300211820FFF727FCE7
:103AF000002010210323CDE9001042480021026874
:103B00006020FFF7D2FB5548006803F069F80446CF
:103B10000020102102232246CDE90010042130208C
:103B2000FFF757FC4D48006803F05AF8804603F051
:103B300093F8074649480168384603F085F9064678
:103B4000474903F0B5F8054603F066F8044600203F
:103B5000102102232246CDE9001004215020FFF756
:103B6000EEFB4048006803F03BF8044600201021BB
:103B700002232246CDE9001006213020FFF729FC60
:103B80003848006803F02CF8804603F065F86BE0D5
:103B900031000020320000204E100020660200207C
:103BA000E6040020D5FDD4DABFAABBFA000000006D
:103BB000D5FDD4DABFAABBFAA1A30000D5FDD4DAA3
:103BC000BFAABBFAA1A3A1A300000000D5FDD4DACF
:103BD000BFAABBFAA1A3A1A3A1A30000D5FDD4DA7B
:103BE000BFAABBFAA1A3A1A3A1A3A1A300000000A7
:103BF0006C100020330000204F100020CE14002055
:103C00006E1000208410002090012142D6D8D6C327
:103C1000000000007769666900000000BFAAB5C611
:103C200000000000B9D8B5C600000000B8FCD0C242
:103C3000CAB1BCE400000000BEB5CFF1CFD4CABE0B
:103C4000000000007C1000203A000000CEC2B6C880
:103C500000000000CAAAB6C80000000074100020CE
:103C60000000C84278100020074690480168384696
:103C700003F0EAF806468E4903F01AF8054602F00A
:103C8000CBFF04460020102102232246CDE900107C
:103C900006215020FFF753FB09E700BFBDE8FC8178
:103CA0001CB5FFF717FA83A200210846FFF7C1FBF6
:103CB00083A206215020FFF7BCFB0020102382A224
:103CC000014600904820FFF7CAFA0020102380A286
:103CD00006210090FFF7C3FA002020237FA20221D3
:103CE0000090FFF7BCFA85E04FF41670FFF7CBFDAC
:103CF000FFF750FD7B480078022800D07BE00020D1
:103D00001021CDE900107848828804230621002084
:103D1000FFF715FB00201021CDE9001072488279D1
:103D2000022306212820FFF70AFB00201021CDE9FD
:103D300000106D48C279022306214020FFF7FFFAE8
:103D400000202021CDE9001067480278022319469F
:103D50000020FFF7F4FA00202021CDE9001062488E
:103D60004278022319463020FFF7E9FA002020218B
:103D7000CDE900105C488278022319466020FFF7E5
:103D8000DEFA594BDA799979988800F0FFF807281C
:103D90002FD2DFE800F0040A10161C22280053A2DC
:103DA00006217020FFF745FB23E051A20621702079
:103DB000FFF73FFB1DE04FA206217020FFF739FB04
:103DC00017E04DA206217020FFF733FB11E04BA254
:103DD00006217020FFF72DFB0BE049A20621702081
:103DE000FFF727FB05E047A206217020FFF721FB24
:103DF00000BF00BF78E700BF1CBD1CB5FFF76AF924
:103E00000020102340A2022100904020FFF727FA53
:103E1000002010233EA2042100904020FFF71FFA4B
:103E2000002010233CA2062100904020FFF717FA43
:103E300039E04FF44870FFF726FDFFF7ABFC294847
:103E40000078032800D02FE000201023344A0146D8
:103E500000904020FFF703FA3248006840231A46DA
:103E6000002100900846FFF74FFB0020102102239D
:103E7000CDE900102C48194602686820FFF7A9FA1E
:103E8000002010210223CDE90010284804210268F7
:103E90007020FFF70AFA00201023254A062100901F
:103EA0006820FFF7DCF9C4E700BF1CBD78100020D4
:103EB0000000C842B5B1C7B0CAB1BCE40000000000
:103EC000D0C7C6DA00000000285554432B3829001B
:103ED000202020202F20202F0000000020203A202A
:103EE000203A00004E100020CE140020C8D500005B
:103EF000D2BB0000B6FE0000C8FD0000CBC400002D
:103F0000CEE50000C1F9000054656D703A00000074
:103F100048756D693A00000057696E653A00000007
:103F20006010002068100020501000205410002065
:103F30005810002008B501210820FDF7D9F94FF4E9
:103F40008050ADF8000010208DF8030003208DF89C
:103F5000020069460448FCF7A9FE4FF4805102486C
:103F6000FCF751FF08BD0000000C014008B503201C
:103F70008DF8000000208DF801008DF8020001206E
:103F80008DF803006846FCF7B0FA08BDF0B50346AB
:103F90000C461546642093FBF0F0C6B2642093FBF8
:103FA000F0F700FB1730C1B2132E02DD01F16400FF
:103FB000C1B20846CF1701EB977701EBA707BAB25A
:103FC000072092FBF0F700FB172082B25719601E02
:103FD000DFF8D4C31CF80000384482B2CF1701EBDD
:103FE0009777BF10A1EB87071FB9032C01DA501E8A
:103FF00082B2072092FBF0F700FB1720C0B2F0BDA1
:104000000146CA1701EB92729210A1EB820292B99B
:10401000642091FBF0F200FB121050B94FF4C8700D
:1040200091FBF0F200FB121008B90120704700204C
:10403000FCE70120FAE70020F8E770B5002600242D
:104040000025FDF7D9F90646D848B6FBF0F4D84864
:104050000088A0423CD0D6490C8040F2B27510E0F6
:104060002846FFF7CDFF40B1B4F5B77F02D3A4F5E2
:10407000B77404E0681C85B206E0A4F26D14681CF5
:1040800085B2B4F5B67FEBD800BFCA48858000255D
:1040900016E0C8498888FFF7B3FF30B1012D04D17D
:1040A0001D2C01D31D3C09E00CE0C348405DA0423B
:1040B00003D8C148405D241A00E003E0681C85B2C3
:1040C0001C2CE6D200BF681CBA498871601CC871FC
:1040D000B648B6FBF0F100FB11644FF46160B4FB2D
:1040E000F0F0B44908704FF46160B4FBF0F100FBEC
:1040F00011403C21B0FBF1F0AE4948704FF46160D3
:10410000B4FBF0F100FB11403C21B0FBF1F201FBEC
:104110001200A84988700B46DA7999799888FFF7D8
:1041200035FFA4490872002070BD2DE9F05F0646F6
:104130000F4690469946DDE90AAB002440F2B27082
:10414000864203DB40F63300864202DD0120BDE8F3
:10415000F09F40F2B2750AE02846FFF751FF10B118
:104160009648044401E096480444681C85B2B54270
:10417000F2DB781EC7B2002510E08F48405D40F2A8
:10418000A321484304EBC0143046FFF739FF18B1B0
:10419000012D01D185480444681C85B2BD42ECDB89
:1041A000A8F1010040F2A321484304EBC014C9EB7D
:1041B0004910C0EB092004EB0014CAEB0A1004EB11
:1041C00080045C4401214FF0C050FDF79EF80120AF
:1041D000FCF7C5FE2046FDF718F9FDF749F9002068
:1041E000B5E71CB5002401214FF0C050FDF78DF854
:1041F0000120FCF7B4FE0420FCF73DFC45F2500121
:10420000884240D0FCF702FC0120FCF7DEFF04E00E
:10421000601CC4B20A20FEF7C2FA4120FCF73DFF41
:1042200008B9FA2CF4DBFA2C01DB01201CBD4FF499
:104230008070FCF7E6FF0120FCF7E9FFFDF718F9B5
:10424000FDF71FF901210846FDF7B6F8FDF710F953
:10425000FDF7BFF847F6FF70FDF7E4F8FDF708F942
:104260000020132111230622CDE90010022140F283
:10427000E570FFF75AFFFDF7B5F845F2500104204D
:10428000FCF7EDFB07E0FDF7FCF801210846FDF720
:1042900093F8FDF7EDF8FFF769FEFFF7CEFE00207B
:1042A000C4E70EB50120FDF711F908B1FFF7C5FE0F
:1042B0000220FDF70BF9A0B10220FDF717F9FFF777
:1042C000BCFE3C4880783B4949783A4A1278CDE9AF
:1042D000002102903748C3798279818839A001F0A2
:1042E000D9FD0520FDF702F9FDF7C2F80EBD2DE955
:1042F000F05F06460F4690469946DDE90AAB00247A
:1043000040F2B270864203DB40F63300864202DDA3
:104310000120BDE8F09F40F2B2750AE02846FFF7A1
:104320006FFE10B12548044401E025480444681C90
:1043300085B2B542F2DB781EC7B2002510E01E48F8
:10434000405D40F2A321484304EBC0143046FFF720
:1043500057FE18B1012D01D114480444681C85B2E0
:10436000BD42ECDBA8F1010040F2A321484304EB7D
:10437000C014C9EB4910C0EB092004EB0014CAEBD0
:104380000A1004EB80045C4401214FF0C050FCF79C
:10439000BCFF0120FCF7E3FD2046FDF751F8FDF7D7
:1043A00067F80020B5E700004C9300088051010039
:1043B00070100020CE140020589300080085E20100
:1043C0008033E101416C61726D2054696D653A255D
:1043D000642D25642D25642025643A25643A2564DE
:1043E0000A00000010B5F848006820F47060F64933
:1043F00008600846006840F4407008600020F349F7
:1044000008600220FEF7A7F90020F149C1F8A801D1
:104410000220FEF7A0F90120EC4908600220FEF717
:104420009AF90020EA49C1F8AC010120FEF793F99E
:1044300010BD10B5E448006820F47060E2490860DF
:104440000846006840F4407008600020DF490860BA
:104450000220FEF780F90120DD49C1F8A801022001
:10446000FEF779F90120D94908600220FEF773F9B7
:104470000020D749C1F8AC010120FEF76CF910BD4E
:1044800010B5C824D048006820F47060CE49086098
:104490000846006840F4407008600120CB49091FBD
:1044A0000860FEF758F90020C949C1F8AC010120A5
:1044B000FEF751F9C448006820F47060C2490860F2
:1044C0000846006840F4006008600120FEF743F9E8
:1044D0000DE0601EC4B20120FEF73DF924B90020B2
:1044E000BA490860012010BD0120FEF734F9B74831
:1044F000843800680028ECD10120FEF72CF9012057
:10450000B2490860FEF727F90020B149C1F8AC01B3
:104510000120FEF720F90020E5E710B5AA48006861
:1045200020F47060A84908600846006840F44070B4
:1045300008600120A549091F0860A549C1F8AC0120
:104540000420FEF708F90020A049091F0860042094
:10455000FEF701F900209E49C1F8AC0110BD10B56D
:104560009948006820F47060974908600846006820
:1045700040F4407008600020944908609449C1F8F4
:10458000A8010420FEF7E7F8012090490860042004
:10459000FEF7E1F801208E49C1F8A8010420FEF7DA
:1045A000DAF810BD70B504468748006820F47060E2
:1045B000854908600846006840F4407008600020A3
:1045C00082490860002517E0E0098049091F08605A
:1045D0006006040E0220FEF7BEF801207C49C1F8F7
:1045E000AC010220FEF7B7F80020784908600220ED
:1045F000FEF7B1F8681CC5B2082DE5DB70BD70B5DB
:1046000000247148006820F470606F490860084613
:10461000006840F4006008600120FEF79CF8002567
:1046200016E00020694908600220FEF794F8012096
:104630006749C1F8AC016006040E6448843800681C
:1046400008B144F001040120FEF785F8681CC5B2EA
:10465000082DE6DB00205D490860204670BD08B5E6
:1046600001210820FCF744FE4FF44060ADF8000043
:1046700010208DF8030003208DF80200694652488F
:10468000001FFCF713FB4FF440614F48001FFCF77D
:10469000BAFB08BD2DE9F04F89B082464FF0000B00
:1046A00000200790049005900690FFF736FF002148
:1046B00041EA4A01C8B2FFF775FFFFF7E1FE2C207F
:1046C000FFF770FFFFF7DCFE0620FFF76BFFFFF739
:1046D000D7FEFFF744FF3220FEF761F8FFF71DFF1A
:1046E000012101EB4A01C8B2FFF75CFFFFF7C8FEEA
:1046F000002865D1FFF783FFADF81000FFF772FEC9
:10470000FFF77DFFADF81200FFF76CFEFFF777FFB4
:10471000ADF81400FFF766FEFFF771FFADF8160065
:10472000FFF760FEFFF76BFFADF81800FFF75AFECA
:10473000FFF765FFADF81A00FFF77BFEFFF70FFFED
:10474000BDF81200BDF8101040EA01201FFA80FBEE
:10475000BDF81800BDF8161040EA012080B207909D
:10476000584602F091FA019002F0ACF90022194B80
:10477000CDE9020101F0BEFF80460022164B01F098
:104780001FFE06460022154B02F0B2F8044601F067
:104790003DFD13490860079802F076FA039002F095
:1047A00091F9804600220F4B01F0A4FF064600223B
:1047B000094B01F005FE044601F028FD0A49086096
:1047C00009B0BDE8F08F0000040C0140AC8121422B
:1047D0000080214200E06540E0FFEF40008046405D
:1047E0007410002000005940781000207FB5054665
:1047F0000C4601210846FCF788FDADF80850ADF8DD
:1048000004400020ADF80A00ADF8060001A94FF001
:104810008040FCF749FF012211469007FDF7BBFAE3
:104820001C208DF8000002208DF801008DF8020098
:1048300001208DF803006846FBF757FE0121880729
:10484000FDF78EFA7FBD2DE9F05F01218807FDF7A6
:1048500050FD002844D001218807FDF75BFD214869
:10486000007810B1FEF70EFC01E0FEF7D5FB1E4804
:104870000078401C1C490870084600780A282FDD83
:1048800000200870FEF73AF91849086008460068E9
:1048900002F018F98046164A164B02F029F806462F
:1048A0004FF03332144B01F08BFD04460022134BC2
:1048B00001F020FF824601F0DBFE11490860084646
:1048C0000068642802DD6420086006E00C48006887
:1048D000002802DA00200A4908604420FFF7DAFEC7
:1048E000BDE8F09F7C100020881000208010002080
:1048F000CDCCCCCCCCCC0C403333E33F0000594082
:104900008410002010B50446042C1DD007DC6CB1C7
:10491000012C0ED0022C0FD0032C26D110E0052C38
:1049200017D0062C19D0FF2C1FD11AE0FEF7FEF984
:104930001FE0FEF7FBF91CE001203049086018E099
:1049400001202E49086014E02D4800782B490860AA
:104950000FE00120294908600BE001202749086089
:1049600007E001202549086003E001202349086091
:1049700000BF00BF10BD10B50446042C1FD007DCDB
:104980006CB1012C0FD0022C11D0032C27D112E0D6
:10499000052C18D0062C1AD0FF2C20D11BE019A012
:1049A00001F078FA1FE01BA001F074FA1BE01DA0D3
:1049B00001F070FA17E023A001F06CFA13E025A0D3
:1049C00001F068FA0FE028A001F064FA0BE02DA0D6
:1049D00001F060FA07E035A001F05CFA03E038A0CE
:1049E00001F058FA00BF00BF10BD10B500F035FC53
:1049F00004462046FFF786FF10BD000094012142C7
:104A000034000020536D61727420C5E4D6C3D7B45E
:104A1000CCAC0A00415020C5E4D6C3D7B4CCAC0A14
:104A2000000000005749464920C5E4D6C3CDEAB38B
:104A3000C9B5ABCEB4C1ACBDD3C9CFC2B7D3C9C65B
:104A4000F70A0000C2B7D3C9C6F7C1ACBDD3B3C91A
:104A5000B9A60A007769666920D2D1C1ACC9CFD4A2
:104A6000C6B6CB0A000000005749464920C9E8B144
:104A7000B8B4A6D3DAB5CDB9A6BAC4C4A3CABD0A20
:104A8000000000005749464920C9E8B1B8B4A6D390
:104A9000DA736D617274636F6E666967264150C523
:104AA000E4D6C3D7B4CCAC0A00000000574946494D
:104AB0005F534154455F554E4B4E4F570A0000001F
:104AC000CAFDBEDDB4EDCEF30A00000010B5012131
:104AD0000807FCF71AFC0120FCF750FAFCF76DFA06
:104AE00010BD10B5114801780820FBF7B8FF104839
:104AF00001780C20FBF7B3FF00214FF4FE70FCF7A8
:104B000011FCFFF7E3FF10BD10B500240DE00948CC
:104B1000006840B1601CC4B21420FDF740FE642C54
:104B200003DB012010BD0020FCE7F0E7340000208B
:104B30007C1000200001214230B589B005460C46AA
:104B400001210220FCF7E1FB01210820FCF7D0FB4A
:104B50000320ADF8200018208DF8230003208DF8E5
:104B6000220008A93748FCF7A1F8ADF81850ADF8B5
:104B700014400020ADF81A00ADF8160005A932481F
:104B8000FCF792FD6020ADF804000120ADF80600AE
:104B90000020ADF80C0001A92B48FCF751FE01A93B
:104BA0002948FCF798FE08212748FDF71FFA08213D
:104BB0002548FDF724FA01212348FDF7D1F840F2FA
:104BC000771021493C3108804FF4FA70091D0880A4
:104BD00009B030BD1D48007820B1012807D0022857
:104BE00011D10AE0FA2018493C3108800CE040F26B
:104BF000771015493C31088006E04FF4FA701249ED
:104C00003C31088000E000BF00BF1148007820B1AF
:104C1000012808D0022812D10BE040F277100A498F
:104C2000403108800CE04FF4FA70074940310880A9
:104C300006E040F2262004494031088000E000BF31
:104C400000BF7047000C01400004004089100020A4
:104C50008A1000200246302A05DB392A03DCA2F143
:104C60003003DAB20EE0412A05DB462A03DCA2F16A
:104C70003703DAB206E0612A04DB662A02DCA2F11D
:104C80005703DAB202F00F000001302905DB3929A1
:104C900003DCA1F13003D9B20EE0412905DB46293E
:104CA00003DCA1F15703D9B206E0612904DB6629D0
:104CB00002DCA1F15703D9B201F00F03184370478A
:104CC0000146002209B900207047002200E0521C72
:104CD00011F8013B002BFAD11046F5E730B5034639
:104CE0000C4619460BB9002030BD01E001F8014B1C
:104CF000101EA2F10105AAB2F8D11846F4E7F0B5EA
:104D000005460E4613462A46344605B10EB9002024
:104D1000F0BDA24202D9E018904208D2002103E07F
:104D2000605C5054481C81B29942F9DB07E0194697
:104D300003E0481E275C175481B20029F9DC28469D
:104D4000E6E70246002302B109B900207047134686
:104D500003E011F8010B02F8010B08780028F8D1E4
:104D600010701846F2E7024601E0521C491C107808
:104D700028B1087818B110780B789842F5D01078DF
:104D80000B78C01A7047020E0A70020C4A70020AB1
:104D90008A70C870704701460020087800024A787F
:104DA000104300028A7810430002CA78104370470B
:104DB0002DE9F0410646884614460027FB48007856
:104DC000012801D1BDE8F0813146384600F0F2FDFE
:104DD00007460021384600F0EDFD07462546E0175E
:104DE00004EB1060C0F30721384600F0E3FD0746EE
:104DF000E01704EB10600012A4EB0020C1B23846AB
:104E000000F0D8FD074622464146384600F0D8FD5E
:104E100007463A460321072000F003FE0120D1E7B0
:104E200070B504460D460026E0480078012800D100
:104E300070BD2146304600F0BDFD064601213046DA
:104E400000F0B8FD06460021304600F0B3FD0646EE
:104E50000121304600F0AEFD06462DB90021304656
:104E600000F0A8FD064604E00121304600F0A2FD56
:104E7000064632460321072000F0D3FD0120D7E784
:104E800070B505460C460026C8480078012800D1B8
:104E900070BD2946304600F08DFD064602213046A1
:104EA00000F088FD06460021304600F083FD0646EE
:104EB0000421304600F07EFD0646210E304600F00B
:104EC00079FD0646C4F30741304600F073FD0646FF
:104ED000C4F30721304600F06DFD0646E1B23046CE
:104EE00000F068FD064632460321072000F099FDD8
:104EF0000120CDE72DE9F0410646884614460027FB
:104F0000AA480078012801D1BDE8F0813146384631
:104F100000F050FD07460321384600F04BFD0746E0
:104F20002546E01704EB1060C0F30721384600F077
:104F300041FD0746E01704EB10600012A4EB0020CF
:104F4000C1B2384600F036FD074622464146384693
:104F500000F036FD07463A460321072000F061FDC8
:104F60000120D1E770B504460E4600258F48007831
:104F7000012800D170BD2146284600F01BFD0546E2
:104F80000421284600F016FD05460021284600F0C1
:104F900011FD05460121284600F00CFD054631466D
:104FA000284600F007FD05462A460321072000F0A9
:104FB00038FD0120DEE770B505460C4600267B482B
:104FC0000078012800D170BD2946304600F0F2FC7F
:104FD00006460521304600F0EDFC0646002130462D
:104FE00000F0E8FC064644F0FF00FF280AD101214A
:104FF000304600F0DFFC0646E1B2304600F0DAFC55
:10500000064632E04FF6FF7020434FF6FF718842AC
:1050100010D10221304600F0CDFC0646C4F3072132
:10502000304600F0C7FC0646E1B2304600F0C2FC54
:1050300006461AE00421304600F0BCFC0646210E6C
:10504000304600F0B7FC0646C4F30741304600F096
:10505000B1FC0646C4F30721304600F0ABFC06461F
:10506000E1B2304600F0A6FC064632460321072096
:1050700000F0D7FC0120A6E70246107870470246F0
:105080001078704710B503460C461846FFF783FEAC
:1050900010BD47490968474A1268891A01291CD07E
:1050A00044490968424A1268914206D9414909684F
:1050B0003F4A1268891A87290FD23E490A683E4939
:1050C0008A4202D387393B4A11603A49096808701D
:1050D00038490968491C374A1160704730B50446A1
:1050E0000D46002300BF04E0E05CFFF7D2FF581C30
:1050F00083B2AB42F8DB30BD70B50024002509E077
:1051000000F0A7FE2D490A880988491C2B4B1980FD
:105110002B49885429480088872803D200F08FFE45
:105120000028EDDC25480088072800DA70BD4FE034
:105130002348005D552802D0601C84B248E0204915
:10514000601C085CAA2802D0601C84B240E01C49A4
:10515000A01C085C10B1A01C84B239E01849201DC5
:10516000085C4FF6FF7101EA00251549601D085CD7
:10517000C01D284485B28E2D02D9E01C84B227E0E0
:105180000E480088001BA84200DA26E06A1E91B291
:105190000B4A101900F025FC6119491E084A515CA0
:1051A00088420FD0E01C84B212E00000A81000205A
:1051B000A4100020A0100020E61500208C10002074
:1051C000D8140020204600F067FD601984B200BFAB
:1051D0002A480088001B0728AADA00BF2748008851
:1051E000001B2649088008460088002806DD244860
:1051F0000119224802882248FFF781FD00BF95E788
:105200002048214908602149086000202049087091
:10521000FF202049087070471F480078704710B57C
:1052200000201D49087000220321042000F0F9FB32
:1052300010BD1A480078704770B50446002500205C
:10524000164908702146284600F0B4FBC5B22A462C
:105250000321052000F0E5FB70BD0E480078704783
:1052600010B5002203211C2000F0DBFB10BD10B59F
:10527000002203210E2000F0D4FB10BD8C10002072
:10528000D81400205F150020A0100020A4100020DA
:10529000A8100020AB100020A9100020AA100020A8
:1052A00010B504462046FDF777FB10BD70B5FE49EA
:1052B000FE48006801F0FCFC054601F0ADFC044628
:1052C00021460120FFF7DCFDF749F948006801F0AD
:1052D000EFFC054601F0A0FC044621460220FFF742
:1052E000CFFDF448006800EB800041000420FFF788
:1052F000C7FDF14801786520FFF734FEEF480178DB
:105300006620FFF72FFE70BD2DE9F04106460F46DF
:1053100039463046FFF7B3FE054625B1012D06D0CC
:10532000022D0CD107E00020E349087008E00120BD
:10533000E149087004E00220DF49087000E000BF86
:1053400000BF29466520FFF70DFE0446012C01D160
:10535000BDE8F0810020FBE72DE9F04106460F464D
:1053600039463046FFF78BFE054625B1012D06D0A4
:10537000022D0CD107E00020D049087008E0012080
:10538000CE49087004E00220CC49087000E000BF5C
:1053900000BF29466620FFF7E5FD0446012C01D138
:1053A000BDE8F0810020FBE72DE9F04105460E46FF
:1053B0001746652D02D0662D0CD105E039463046E2
:1053C000FFF7A2FF044606E039463046FFF7C4FF68
:1053D000044600E000BF00BF2046BDE8F081052084
:1053E00070477CB50446207801280BD1A0796179FB
:1053F000CDE900102379E278A178657805F5FA60A7
:10540000FEF793FE7CBD08B901B100BF70477FB5C0
:1054100000240020009001900290039000260025B7
:10542000042600BF13E0A64850F82420A5A10DF1E2
:10543000010000F03BFDC0B28DF800009DF80000B7
:10544000421C6946284600F0BBFA0546641CB4427B
:10545000E9DB01229DA10DF1010000F027FDC0B2A2
:105460008DF800009DF80000421C6946284600F0B7
:10547000A7FA05462A460321202000F0D2FA7FBD74
:1054800070B504460D46012C03D193A000F002FD37
:1054900000E000BF70BD2DE9F0418EB080460E46A1
:1054A00014461F463222002101A8FFF717FC5EB9FF
:1054B00020780006617840EA0140A17840EA0120A6
:1054C000E17840EA010505E0012E03D1214601A85B
:1054D000FFF737FC87A14046FFF745FC38B98748FE
:1054E00005602A46394686A000F0D4FC31E28BA143
:1054F0004046FFF738FC38B98B4805602A463946E4
:105500008AA000F0C7FC24E290A14046FFF72BFCE4
:1055100048B901A99048FFF714FC01AA39468FA0A9
:1055200000F0B8FC15E295A14046FFF71CFC0028EE
:10553000DCD195A101A8FFF716FC002846D093A165
:1055400001A8FFF710FC002840D092A101A8FFF7A6
:105550000AFC00283AD093A101A8FFF704FC002818
:1055600034D092A101A8FFF7FEFB00282ED093A112
:1055700001A8FFF7F8FB002828D092A101A8FFF7A7
:10558000F2FB002822D093A101A8FFF7ECFBE8B1C1
:1055900092A101A8FFF7E7FBC0B193A101A8FFF713
:1055A000E2FB98B194A101A8FFF7DDFB70B194A1D3
:1055B00001A8FFF7D8FB48B195A101A8FFF7D3FBDD
:1055C00020B196A101A8FFF7CEFB50B996A000F03C
:1055D00061FC97A19948FFF7B4FB99489949086085
:1055E000B7E199A101A8FFF7BEFB48B198A101A8B6
:1055F000FFF7B9FB20B197A101A8FFF7B4FB50B9A1
:1056000095A000F047FC96A18C48FFF79AFB9748BD
:105610008C4908609DE196A101A8FFF7A4FB48B161
:1056200096A101A8FFF79FFB20B196A101A8FFF763
:105630009AFB50B995A000F02DFC97A17F48FFF789
:1056400080FB98487F49086083E197A101A8FFF794
:105650008AFB38B396A101A8FFF785FB10B396A18A
:1056600001A8FFF780FBE8B194A101A8FFF77BFB3D
:10567000C0B194A101A8FFF776FB98B195A101A84C
:10568000FFF771FB70B196A101A8FFF76CFB48B161
:1056900095A101A8FFF767FB20B196A101A8FFF72C
:1056A00062FB2BE12BE10000000020417410002080
:1056B0007810002084100020891000208A1000201B
:1056C00090100020772E257300000000772E646173
:1056D00074652E256400000077656174686572202A
:1056E0006F70656E2069732073756363657373668D
:1056F000756C0A0074656D70000000005010002089
:105700006461793A25642074656D702076616C75EA
:10571000652069733A25640D0A00000068756D699B
:105720006469747900000000541000206461793AC3
:1057300025642068756D69646974792076616C757B
:10574000652069733A25640D0A00000077696E646C
:105750005370656564000000581000206461793A58
:1057600025642077696E6453706565642076616C8A
:1057700075652069733A25730D0A0000636F6E64C6
:105780006974696F6E000000E99BA800E5B08FE9BD
:105790009BA80000E5B08FE588B0E4B8ADE99BA810
:1057A00000000000E4B8ADE99BA80000E4B8ADE556
:1057B00088B0E5A4A7E99BA800000000E5A4A7E93C
:1057C0009BA80000E5A4A7E588B0E69AB4E99BA8E9
:1057D00000000000E69AB4E99BA80000E5A4A7E653
:1057E0009AB4E99BA8000000E789B9E5A4A7E69A66
:1057F000B4E99BA800000000E998B5E99BA8000067
:10580000E5B180E983A8E998B5E99BA8000000000C
:10581000E5B08FE998B5E99BA8000000E5BCBAE9BE
:1058200098B5E99BA80000007261696E0A0000004B
:105830007261696E202020200000000060100020AE
:105840004E0E002068100020E5A49AE4BA910000F2
:10585000E998B400E99BBE00636C6F7564790A0037
:10586000636C6F7564792020000000004E060020F4
:10587000E99BB7E998B5E99BA8000000E99BB7E66A
:105880009AB40000E99BB7E794B500007468756EA0
:105890006465720A000000007468756E64657220A9
:1058A000000000004E080020E998B5E99BAA00001E
:1058B000E5B08FE99BAA0000E99BAA00E5A4A7E94F
:1058C0009BAA0000E5B08FE588B0E4B8ADE99BAADB
:1058D00000000000E5B08FE998B5E99BAA00000040
:1058E000E4B8ADE99BAA0000E99BA8E5A4B9E99B4F
:1058F000AA000000E69AB4E99BAA000050B916A0DD
:1059000000F0C8FA16A11948FFF71BFA1848194900
:1059100008601EE018A101A8FFF725FA20B117A121
:1059200001A8FFF720FA50B916A000F0B3FA17A1AA
:105930000E48FFF706FA18480E49086009E017A05C
:1059400000F0A8FA18A10948FFF7FBF91248094925
:1059500008600EB0BDE8F081736E6F77730A0000C7
:10596000736E6F777320202000000000601000200D
:105970004E0C002068100020E699B400E5B091E4D8
:10598000BA91000073756E6E790A000073756E6EC1
:1059900079202020000000004E0A0020416C6C207D
:1059A00077726F6E670A00002020202020202020C0
:1059B00000000000F74B1A181170431C98B2704792
:1059C0002DE9F04104460E461546F24807192A46CD
:1059D00031463846FFF793F9601984B22046BDE896
:1059E000F08130B502460020002305E012F8015B8B
:1059F0002C18E0B25C1CA3B28B42F7DB30BD70B553
:105A000004460D4604B105B970BD03E02078FFF7E8
:105A100047FC641C281EA5F101018DB2F6D100BF20
:105A2000F2E72DE9F04105460E46144600275520C1
:105A3000D849891F0870AA20487008468670C5702A
:105A4000201208714C71E01D84B2601E81B2D148F1
:105A5000801FFFF7C6FF0746601ECE49891F0F54FF
:105A60002146CC48801FFFF7CAFFBDE8F08110B582
:105A70000024C948007840B900212046FFF79AFF6A
:105A8000C4B20120C449087004E001212046FFF798
:105A900091FFC4B2224603210020FFF7C2FF10BDD0
:105AA0003EB500240020009001900290BBA0FFF7BB
:105AB00007F985B22A46B9A12046FFF781FFC4B293
:105AC000B8A0FFF7FDF885B22A46B6A12046FFF739
:105AD00077FFC4B2B8A0FFF7F3F885B22A46B6A1A3
